{
  "address": "0xcd62452DB498BD0eaAF7Dd2D92c68a6bDdC11Eb0",
  "abi": [
    {
      "inputs": [
        {
          "internalType": "address",
          "name": "_owner",
          "type": "address"
        }
      ],
      "stateMutability": "nonpayable",
      "type": "constructor"
    },
    {
      "inputs": [
        {
          "internalType": "address",
          "name": "owner",
          "type": "address"
        }
      ],
      "name": "OwnableInvalidOwner",
      "type": "error"
    },
    {
      "inputs": [
        {
          "internalType": "address",
          "name": "account",
          "type": "address"
        }
      ],
      "name": "OwnableUnauthorizedAccount",
      "type": "error"
    },
    {
      "anonymous": false,
      "inputs": [
        {
          "indexed": true,
          "internalType": "address",
          "name": "greetingSetter",
          "type": "address"
        },
        {
          "indexed": false,
          "internalType": "string",
          "name": "newGreeting",
          "type": "string"
        },
        {
          "indexed": false,
          "internalType": "bool",
          "name": "premium",
          "type": "bool"
        },
        {
          "indexed": false,
          "internalType": "uint256",
          "name": "value",
          "type": "uint256"
        }
      ],
      "name": "GreetingChange",
      "type": "event"
    },
    {
      "anonymous": false,
      "inputs": [
        {
          "indexed": true,
          "internalType": "address",
          "name": "previousOwner",
          "type": "address"
        },
        {
          "indexed": true,
          "internalType": "address",
          "name": "newOwner",
          "type": "address"
        }
      ],
      "name": "OwnershipTransferred",
      "type": "event"
    },
    {
      "inputs": [
        {
          "internalType": "uint256",
          "name": "",
          "type": "uint256"
        }
      ],
      "name": "orders",
      "outputs": [
        {
          "internalType": "address",
          "name": "creator",
          "type": "address"
        },
        {
          "internalType": "uint256",
          "name": "chainId",
          "type": "uint256"
        },
        {
          "internalType": "address",
          "name": "token",
          "type": "address"
        },
        {
          "internalType": "enum PayFusion.Status",
          "name": "status",
          "type": "uint8"
        }
      ],
      "stateMutability": "view",
      "type": "function"
    },
    {
      "inputs": [],
      "name": "owner",
      "outputs": [
        {
          "internalType": "address",
          "name": "",
          "type": "address"
        }
      ],
      "stateMutability": "view",
      "type": "function"
    },
    {
      "inputs": [],
      "name": "renounceOwnership",
      "outputs": [],
      "stateMutability": "nonpayable",
      "type": "function"
    },
    {
      "inputs": [
        {
          "internalType": "uint256",
          "name": "_chainId",
          "type": "uint256"
        },
        {
          "internalType": "address",
          "name": "_token",
          "type": "address"
        },
        {
          "internalType": "string",
          "name": "_email",
          "type": "string"
        }
      ],
      "name": "savePreferences",
      "outputs": [],
      "stateMutability": "nonpayable",
      "type": "function"
    },
    {
      "inputs": [
        {
          "internalType": "address",
          "name": "newOwner",
          "type": "address"
        }
      ],
      "name": "transferOwnership",
      "outputs": [],
      "stateMutability": "nonpayable",
      "type": "function"
    },
    {
      "inputs": [],
      "name": "withdraw",
      "outputs": [],
      "stateMutability": "nonpayable",
      "type": "function"
    },
    {
      "stateMutability": "payable",
      "type": "receive"
    }
  ],
  "transactionHash": "0x853828b7ad7d5f6bbb3499120f246655383a2f426105cf357394626d6284e5c6",
  "args": [
    "0xD2692F9df925D18D527ABe8b3d99EE9E9C8d75AE"
  ],
  "numDeployments": 1,
  "solcInputHash": "7b15505684f96e7301b90f05ba7180ee",
  "bytecode": "0x608060405234801561001057600080fd5b5060405161087e38038061087e83398101604081905261002f916100be565b806001600160a01b03811661005e57604051631e4fbdf760e01b81526000600482015260240160405180910390fd5b6100678161006e565b50506100ee565b600080546001600160a01b038381166001600160a01b0319831681178455604051919092169283917f8be0079c531659141344cd1fd0a4f28419497f9722a3daafe3b4186f6b6457e09190a35050565b6000602082840312156100d057600080fd5b81516001600160a01b03811681146100e757600080fd5b9392505050565b610781806100fd6000396000f3fe6080604052600436106100595760003560e01c80630fac55b7146100655780633ccfd60b14610087578063715018a61461009c5780638da5cb5b146100b1578063a85c38ef146100de578063f2fde38b1461014157600080fd5b3661006057005b600080fd5b34801561007157600080fd5b5061008561008036600461046c565b610161565b005b34801561009357600080fd5b50610085610287565b3480156100a857600080fd5b5061008561036b565b3480156100bd57600080fd5b506000546040516001600160a01b0390911681526020015b60405180910390f35b3480156100ea57600080fd5b506101316100f936600461053f565b6003602052600090815260409020805460018201546002909201546001600160a01b039182169291811690600160a01b900460ff1684565b6040516100d5949392919061056e565b34801561014d57600080fd5b5061008561015c3660046105ba565b61037f565b805133901580159061017557506005825110155b1561019e576001600160a01b038116600090815260026020526040902061019c8382610665565b505b6040518060800160405280826001600160a01b03168152602001858152602001846001600160a01b03168152602001600060028111156101e0576101e0610558565b905260018054600090815260036020908152604091829020845181546001600160a01b03199081166001600160a01b039283161783559286015194820194909455918401516002808401805493841692909516918217855560608601519394926001600160a81b03191690911790600160a01b90849081111561026557610265610558565b021790555050600180549150600061027c83610724565b919050555050505050565b61028f6103bd565b47806102cd5760405162461bcd60e51b81526020600482015260086024820152674e6f2066756e647360c01b60448201526064015b60405180910390fd5b600080546040516001600160a01b039091169083908381818185875af1925050503d806000811461031a576040519150601f19603f3d011682016040523d82523d6000602084013e61031f565b606091505b50509050806103675760405162461bcd60e51b81526020600482015260146024820152732330b4b632b2103a379039b2b7321022ba3432b960611b60448201526064016102c4565b5050565b6103736103bd565b61037d60006103ea565b565b6103876103bd565b6001600160a01b0381166103b157604051631e4fbdf760e01b8152600060048201526024016102c4565b6103ba816103ea565b50565b6000546001600160a01b0316331461037d5760405163118cdaa760e01b81523360048201526024016102c4565b600080546001600160a01b038381166001600160a01b0319831681178455604051919092169283917f8be0079c531659141344cd1fd0a4f28419497f9722a3daafe3b4186f6b6457e09190a35050565b80356001600160a01b038116811461045157600080fd5b919050565b634e487b7160e01b600052604160045260246000fd5b60008060006060848603121561048157600080fd5b833592506104916020850161043a565b9150604084013567ffffffffffffffff8111156104ad57600080fd5b8401601f810186136104be57600080fd5b803567ffffffffffffffff8111156104d8576104d8610456565b604051601f8201601f19908116603f0116810167ffffffffffffffff8111828210171561050757610507610456565b60405281815282820160200188101561051f57600080fd5b816020840160208301376000602083830101528093505050509250925092565b60006020828403121561055157600080fd5b5035919050565b634e487b7160e01b600052602160045260246000fd5b6001600160a01b038581168252602082018590528316604082015260808101600383106105ab57634e487b7160e01b600052602160045260246000fd5b82606083015295945050505050565b6000602082840312156105cc57600080fd5b6105d58261043a565b9392505050565b600181811c908216806105f057607f821691505b60208210810361061057634e487b7160e01b600052602260045260246000fd5b50919050565b601f82111561066057806000526020600020601f840160051c8101602085101561063d5750805b601f840160051c820191505b8181101561065d5760008155600101610649565b50505b505050565b815167ffffffffffffffff81111561067f5761067f610456565b6106938161068d84546105dc565b84610616565b6020601f8211600181146106c757600083156106af5750848201515b600019600385901b1c1916600184901b17845561065d565b600084815260208120601f198516915b828110156106f757878501518255602094850194600190920191016106d7565b50848210156107155786840151600019600387901b60f8161c191681555b50505050600190811b01905550565b60006001820161074457634e487b7160e01b600052601160045260246000fd5b506001019056fea2646970667358221220afef022eb0d06a4fd307f27c2878b94bb6e55077101dfeed0ee592289eec97e064736f6c634300081e0033",
  "devdoc": {
    "author": "NightmareFox12",
    "errors": {
      "OwnableInvalidOwner(address)": [
        {
          "details": "The owner is not a valid owner account. (eg. `address(0)`)"
        }
      ],
      "OwnableUnauthorizedAccount(address)": [
        {
          "details": "The caller account is not authorized to perform an operation."
        }
      ]
    },
    "kind": "dev",
    "methods": {
      "owner()": {
        "details": "Returns the address of the current owner."
      },
      "renounceOwnership()": {
        "details": "Leaves the contract without owner. It will not be possible to call `onlyOwner` functions. Can only be called by the current owner. NOTE: Renouncing ownership will leave the contract without an owner, thereby disabling any functionality that is only available to the owner."
      },
      "transferOwnership(address)": {
        "details": "Transfers ownership of the contract to a new account (`newOwner`). Can only be called by the current owner."
      }
    },
    "version": 1
  },
  "userdoc": {
    "kind": "user",
    "methods": {},
    "version": 1
  },
  "storageLayout": {
    "storage": [
      {
        "astId": 8,
        "contract": "contracts/PayFusion.sol:PayFusion",
        "label": "_owner",
        "offset": 0,
        "slot": "0",
        "type": "t_address"
      },
      {
        "astId": 416,
        "contract": "contracts/PayFusion.sol:PayFusion",
        "label": "orderID",
        "offset": 0,
        "slot": "1",
        "type": "t_uint256"
      },
      {
        "astId": 420,
        "contract": "contracts/PayFusion.sol:PayFusion",
        "label": "emails",
        "offset": 0,
        "slot": "2",
        "type": "t_mapping(t_address,t_string_storage)"
      },
      {
        "astId": 425,
        "contract": "contracts/PayFusion.sol:PayFusion",
        "label": "orders",
        "offset": 0,
        "slot": "3",
        "type": "t_mapping(t_uint256,t_struct(Order)414_storage)"
      }
    ],
    "types": {
      "t_address": {
        "encoding": "inplace",
        "label": "address",
        "numberOfBytes": "20"
      },
      "t_enum(Status)544": {
        "encoding": "inplace",
        "label": "enum PayFusion.Status",
        "numberOfBytes": "1"
      },
      "t_mapping(t_address,t_string_storage)": {
        "encoding": "mapping",
        "key": "t_address",
        "label": "mapping(address => string)",
        "numberOfBytes": "32",
        "value": "t_string_storage"
      },
      "t_mapping(t_uint256,t_struct(Order)414_storage)": {
        "encoding": "mapping",
        "key": "t_uint256",
        "label": "mapping(uint256 => struct PayFusion.Order)",
        "numberOfBytes": "32",
        "value": "t_struct(Order)414_storage"
      },
      "t_string_storage": {
        "encoding": "bytes",
        "label": "string",
        "numberOfBytes": "32"
      },
      "t_struct(Order)414_storage": {
        "encoding": "inplace",
        "label": "struct PayFusion.Order",
        "members": [
          {
            "astId": 406,
            "contract": "contracts/PayFusion.sol:PayFusion",
            "label": "creator",
            "offset": 0,
            "slot": "0",
            "type": "t_address"
          },
          {
            "astId": 408,
            "contract": "contracts/PayFusion.sol:PayFusion",
            "label": "chainId",
            "offset": 0,
            "slot": "1",
            "type": "t_uint256"
          },
          {
            "astId": 410,
            "contract": "contracts/PayFusion.sol:PayFusion",
            "label": "token",
            "offset": 0,
            "slot": "2",
            "type": "t_address"
          },
          {
            "astId": 413,
            "contract": "contracts/PayFusion.sol:PayFusion",
            "label": "status",
            "offset": 20,
            "slot": "2",
            "type": "t_enum(Status)544"
          }
        ],
        "numberOfBytes": "96"
      },
      "t_uint256": {
        "encoding": "inplace",
        "label": "uint256",
        "numberOfBytes": "32"
      }
    }
  }
}