{
  "address": "0xC5d2F398162be38f13bb12b494a8BEDD8D620fb9",
  "abi": [
    {
      "anonymous": false,
      "inputs": [
        {
          "indexed": false,
          "internalType": "address",
          "name": "swapAddress",
          "type": "address"
        },
        {
          "indexed": true,
          "internalType": "address",
          "name": "creator",
          "type": "address"
        },
        {
          "indexed": true,
          "internalType": "address",
          "name": "receiver",
          "type": "address"
        },
        {
          "indexed": true,
          "internalType": "address",
          "name": "token",
          "type": "address"
        },
        {
          "indexed": false,
          "internalType": "uint256",
          "name": "amount",
          "type": "uint256"
        },
        {
          "indexed": false,
          "internalType": "uint256",
          "name": "timelockEnd",
          "type": "uint256"
        }
      ],
      "name": "SwapCreated",
      "type": "event"
    },
    {
      "inputs": [
        {
          "internalType": "bytes32",
          "name": "hashlock",
          "type": "bytes32"
        },
        {
          "internalType": "uint256",
          "name": "timelockSeconds",
          "type": "uint256"
        },
        {
          "internalType": "address",
          "name": "receiver",
          "type": "address"
        },
        {
          "internalType": "address",
          "name": "tokenAddress",
          "type": "address"
        },
        {
          "internalType": "uint256",
          "name": "amount",
          "type": "uint256"
        }
      ],
      "name": "createSwap",
      "outputs": [],
      "stateMutability": "nonpayable",
      "type": "function"
    },
    {
      "inputs": [],
      "name": "swapCounter",
      "outputs": [
        {
          "internalType": "uint256",
          "name": "",
          "type": "uint256"
        }
      ],
      "stateMutability": "view",
      "type": "function"
    },
    {
      "inputs": [
        {
          "internalType": "address",
          "name": "",
          "type": "address"
        }
      ],
      "name": "swaps",
      "outputs": [
        {
          "internalType": "address",
          "name": "",
          "type": "address"
        }
      ],
      "stateMutability": "view",
      "type": "function"
    }
  ],
  "transactionHash": "0x7d6814f13e8f735f650fb2e7c8628c89f98b6d438271369b8cde26bf703292c7",
  "args": [],
  "numDeployments": 1,
  "solcInputHash": "1be1f0cf1fb2732d7f6fcaaa37fbe133",
  "bytecode": "0x60c0604052601560809081527f467573696f6e53776170496e74656e744552433230000000000000000000000060a05260029061003c9082610114565b506040805180820190915260018152603160f81b60208201526003906100629082610114565b5034801561006f57600080fd5b506101d2565b634e487b7160e01b600052604160045260246000fd5b600181811c9082168061009f57607f821691505b6020821081036100bf57634e487b7160e01b600052602260045260246000fd5b50919050565b601f82111561010f57806000526020600020601f840160051c810160208510156100ec5750805b601f840160051c820191505b8181101561010c57600081556001016100f8565b50505b505050565b81516001600160401b0381111561012d5761012d610075565b6101418161013b845461008b565b846100c5565b6020601f821160018114610175576000831561015d5750848201515b600019600385901b1c1916600184901b17845561010c565b600084815260208120601f198516915b828110156101a55787850151825560209485019460019092019101610185565b50848210156101c35786840151600019600387901b60f8161c191681555b50505050600190811b01905550565b611fad806101e16000396000f3fe608060405234801561001057600080fd5b50600436106100415760003560e01c80631688cf541461004657806333bce8c31461008c578063da8b673f146100a3575b600080fd5b61006f610054366004610508565b6000602081905290815260409020546001600160a01b031681565b6040516001600160a01b0390911681526020015b60405180910390f35b61009560015481565b604051908152602001610083565b6100b66100b136600461052a565b6100b8565b005b600081116101175760405162461bcd60e51b815260206004820152602160248201527f416d6f756e74206d7573742062652067726561746572207468616e207a65726f6044820152601760f91b60648201526084015b60405180910390fd5b6001600160a01b03831661016d5760405162461bcd60e51b815260206004820152601a60248201527f526563656976657220616464726573732072657175697265642e000000000000604482015260640161010e565b6001600160a01b0382166101c35760405162461bcd60e51b815260206004820152601760248201527f546f6b656e20616464726573732072657175697265642e000000000000000000604482015260640161010e565b600084116102135760405162461bcd60e51b815260206004820152601a60248201527f54696d656c6f636b206d75737420626520706f7369746976652e000000000000604482015260640161010e565b6040516323b872dd60e01b815233600482018190523060248301526044820183905283916001600160a01b038316906323b872dd906064016020604051808303816000875af115801561026a573d6000803e3d6000fd5b505050506040513d601f19601f8201168201806040525081019061028e9190610578565b6103005760405162461bcd60e51b815260206004820152603c60248201527f546f6b656e207472616e736665722066726f6d207573657220746f206661637460448201527f6f7279206661696c65642e20436865636b20616c6c6f77616e63652e00000000606482015260840161010e565b600060026003838a8a8a8a8a604051610318906104df565b61032998979695949392919061063d565b604051809103906000f080158015610345573d6000803e3d6000fd5b5060405163a9059cbb60e01b81526001600160a01b038083166004830152602482018790529192509084169063a9059cbb906044016020604051808303816000875af1158015610399573d6000803e3d6000fd5b505050506040513d601f19601f820116820180604052508101906103bd9190610578565b61042f5760405162461bcd60e51b815260206004820152603860248201527f546f6b656e207472616e736665722066726f6d20666163746f727920746f206e60448201527f6577207377617020636f6e7472616374206661696c65642e0000000000000000606482015260840161010e565b6001600160a01b03828116600090815260208190526040812080546001600160a01b03191692841692909217909155600180549161046c836106b9565b90915550506001600160a01b03808616908716337f63ddfe275c04d4adf4185de83aad2f6b1eb299f299177fad015f6c039cb79b8d84886104ad8d426106d2565b604080516001600160a01b03909416845260208401929092529082015260600160405180910390a45050505050505050565b61188c806106ec83390190565b80356001600160a01b038116811461050357600080fd5b919050565b60006020828403121561051a57600080fd5b610523826104ec565b9392505050565b600080600080600060a0868803121561054257600080fd5b8535945060208601359350610559604087016104ec565b9250610567606087016104ec565b949793965091946080013592915050565b60006020828403121561058a57600080fd5b8151801515811461052357600080fd5b8054600090600181811c908216806105b357607f821691505b6020821081036105d357634e487b7160e01b600052602260045260246000fd5b818652602086018180156105ee576001811461060457610632565b60ff198516825283151560051b82019550610632565b60008781526020902060005b8581101561062c57815484820152600190910190602001610610565b83019650505b505050505092915050565b6101008152600061065261010083018b61059a565b8281036020840152610664818b61059a565b6001600160a01b03998a16604085015260608401989098525050608081019490945291851660a084015290931660c082015260e0019190915292915050565b634e487b7160e01b600052601160045260246000fd5b6000600182016106cb576106cb6106a3565b5060010190565b808201808211156106e5576106e56106a3565b9291505056fe61016060405234801561001157600080fd5b5060405161188c38038061188c83398101604081905261003091610460565b878761003d826000610310565b6101205261004c816001610310565b61014052815160208084019190912060e052815190820120610100524660a0526100d960e05161010051604080517f8b73c3c69bb8fe3d512ecc4cf759cc79239f7b179b0ffacaa9a75d522b39400f60208201529081019290925260608201524660808201523060a082015260009060c00160405160208183030381529060405280519060200120905090565b60805250503060c0526001600160a01b03861661012e5760405162461bcd60e51b815260206004820152600e60248201526d24b73b30b634b21039b2b73232b960911b60448201526064015b60405180910390fd5b6001600160a01b0383166101775760405162461bcd60e51b815260206004820152601060248201526f24b73b30b634b2103932b1b2b4bb32b960811b6044820152606401610125565b6001600160a01b0382166101bd5760405162461bcd60e51b815260206004820152600d60248201526c24b73b30b634b2103a37b5b2b760991b6044820152606401610125565b600081116102025760405162461bcd60e51b81526020600482015260126024820152710416d6f756e74206d757374206265203e20360741b6044820152606401610125565b600084116102525760405162461bcd60e51b815260206004820152601960248201527f54696d656c6f636b206d75737420626520706f736974697665000000000000006044820152606401610125565b600280546001600160a01b038089166001600160a01b03199283161790925560038054928616929091169190911790556004859055610291844261051b565b6005819055600780546001600160a01b0319166001600160a01b038581169182179092556006849055604080518981526020810194909452830184905291858216918916907f2fdb6f62c0073da0eca287e922e0d8a00b5fc3ccf52e955d67cdc42bb83e23299060600160405180910390a450505050505050506106da565b600060208351101561032c5761032583610343565b905061033d565b8161033784826105c5565b5060ff90505b92915050565b600080829050601f8151111561036e578260405163305a27a960e01b81526004016101259190610683565b8051610379826106b6565b179392505050565b634e487b7160e01b600052604160045260246000fd5b60005b838110156103b257818101518382015260200161039a565b50506000910152565b600082601f8301126103cc57600080fd5b81516001600160401b038111156103e5576103e5610381565b604051601f8201601f19908116603f011681016001600160401b038111828210171561041357610413610381565b60405281815283820160200185101561042b57600080fd5b61043c826020830160208701610397565b949350505050565b80516001600160a01b038116811461045b57600080fd5b919050565b600080600080600080600080610100898b03121561047d57600080fd5b88516001600160401b0381111561049357600080fd5b61049f8b828c016103bb565b60208b015190995090506001600160401b038111156104bd57600080fd5b6104c98b828c016103bb565b9750506104d860408a01610444565b60608a015160808b0151919750955093506104f560a08a01610444565b925061050360c08a01610444565b60e09990990151979a96995094979396929591945050565b8082018082111561033d57634e487b7160e01b600052601160045260246000fd5b600181811c9082168061055057607f821691505b60208210810361057057634e487b7160e01b600052602260045260246000fd5b50919050565b601f8211156105c057806000526020600020601f840160051c8101602085101561059d5750805b601f840160051c820191505b818110156105bd57600081556001016105a9565b50505b505050565b81516001600160401b038111156105de576105de610381565b6105f2816105ec845461053c565b84610576565b6020601f821160018114610626576000831561060e5750848201515b600019600385901b1c1916600184901b1784556105bd565b600084815260208120601f198516915b828110156106565787850151825560209485019460019092019101610636565b50848210156106745786840151600019600387901b60f8161c191681555b50505050600190811b01905550565b60208152600082518060208401526106a2816040850160208701610397565b601f01601f19169190910160400192915050565b805160208083015191908110156105705760001960209190910360031b1b16919050565b60805160a05160c05160e0516101005161012051610140516111586107346000396000610927015260006108f501526000610b6801526000610b4001526000610a9b01526000610ac501526000610aef01526111586000f3fe608060405234801561001057600080fd5b50600436106100cf5760003560e01c8063aa8c217c1161008c578063c80ec52211610066578063c80ec522146101a8578063d33219b4146101bc578063f7260d3e146101c5578063fc0c546a146101d857600080fd5b8063aa8c217c14610184578063c6e58b691461018d578063c72b61be146101a057600080fd5b806312f53950146100d4578063153127ce146100fd578063603075451461011257806367e404ce1461012757806384b0196e14610152578063a782086e1461016d575b600080fd5b6007546100e890600160a81b900460ff1681565b60405190151581526020015b60405180910390f35b6101056101eb565b6040516100f49190610e67565b610125610120366004610e81565b61027b565b005b60025461013a906001600160a01b031681565b6040516001600160a01b0390911681526020016100f4565b61015a610319565b6040516100f49796959493929190610e9a565b61017660045481565b6040519081526020016100f4565b61017660065481565b61012561019b366004610f64565b61035f565b6101256106c3565b6007546100e890600160a01b900460ff1681565b61017660055481565b60035461013a906001600160a01b031681565b60075461013a906001600160a01b031681565b600754606090600160a01b900460ff1615610224575060408051808201909152600981526810dbdb5c1b195d195960ba1b602082015290565b600754600160a81b900460ff161561025957506040805180820190915260088152671499599d5b99195960c21b602082015290565b5060408051808201909152600781526650656e64696e6760c81b602082015290565b60045460408051602081018490520160405160208183030381529060405280519060200120146102e35760405162461bcd60e51b815260206004820152600e60248201526d125b9d985b1a59081cd958dc995d60921b60448201526064015b60405180910390fd5b6040518181527f9b7ddc883342824bd7ddbff103e7a69f8f2e60b96c075cd1b8b8b9713ecc75a49060200160405180910390a150565b60006060806000806000606061032d6108ee565b610335610920565b60408051600080825260208201909252600f60f81b9b939a50919850469750309650945092509050565b600254600354600654600454600554604080517fe7b071650bf304f595cdd624ff192f83aea5b4b5ae0d872515eef38d9ce4dc1760208201526001600160a01b03968716918101919091529385166060850152608084018a905260a0840189905287851660c085015293861660e084015261010083019190915261012082015261014081019190915260009061040e90610160016040516020818303038152906040528051906020012061094d565b600254909150610428906001600160a01b03168284610980565b6104685760405162461bcd60e51b8152602060048201526011602482015270496e76616c6964207369676e617475726560781b60448201526064016102da565b600754600160a01b900460ff16156104b55760405162461bcd60e51b815260206004820152601060248201526f105b1c9958591e48195e1958dd5d195960821b60448201526064016102da565b600754600160a81b900460ff16156105025760405162461bcd60e51b815260206004820152601060248201526f105b1c9958591e481c99599d5b99195960821b60448201526064016102da565b60045460408051602081018a90520160405160208183030381529060405280519060200120146105655760405162461bcd60e51b815260206004820152600e60248201526d125b9d985b1a59081cd958dc995d60921b60448201526064016102da565b6005544211156105ae5760405162461bcd60e51b8152602060048201526014602482015273151a5b595b1bd8dac81a185cc8195e1c1a5c995960621b60448201526064016102da565b60078054600160a01b60ff60a01b1982161790915560035460065460405163a9059cbb60e01b81526001600160a01b039283166004820152602481019190915291169063a9059cbb906044016020604051808303816000875af1158015610619573d6000803e3d6000fd5b505050506040513d601f19601f8201168201806040525081019061063d919061105a565b6106815760405162461bcd60e51b8152602060048201526015602482015274151bdad95b881d1c985b9cd9995c8819985a5b1959605a1b60448201526064016102da565b60408051338152602081018990527f0a4faf42a072190da8e63181188040fe68178ee1900cc648968012688226447f910160405180910390a150505050505050565b600554421161070b5760405162461bcd60e51b8152602060048201526014602482015273151a5b595b1bd8dac81b9bdd08195e1c1a5c995960621b60448201526064016102da565b6002546001600160a01b0316331461075e5760405162461bcd60e51b815260206004820152601660248201527513db9b1e481cd95b99195c8818d85b881c99599d5b9960521b60448201526064016102da565b600754600160a01b900460ff16156107ab5760405162461bcd60e51b815260206004820152601060248201526f105b1c9958591e48195e1958dd5d195960821b60448201526064016102da565b600754600160a81b900460ff16156107f85760405162461bcd60e51b815260206004820152601060248201526f105b1c9958591e481c99599d5b99195960821b60448201526064016102da565b60078054600160a81b60ff60a81b1982161790915560025460065460405163a9059cbb60e01b81526001600160a01b039283166004820152602481019190915291169063a9059cbb906044016020604051808303816000875af1158015610863573d6000803e3d6000fd5b505050506040513d601f19601f82011682018060405250810190610887919061105a565b6108c35760405162461bcd60e51b815260206004820152600d60248201526c1499599d5b990819985a5b1959609a1b60448201526064016102da565b6040517feca32268c495f4202277ddc0853891e19ad3250bd98fd2b2aaba02d05d13ede490600090a1565b606061091b7f000000000000000000000000000000000000000000000000000000000000000060006109e2565b905090565b606061091b7f000000000000000000000000000000000000000000000000000000000000000060016109e2565b600061097a61095a610a8e565b8360405161190160f01b8152600281019290925260228201526042902090565b92915050565b600080600061098f8585610bb9565b50909250905060008160038111156109a9576109a961107c565b1480156109c75750856001600160a01b0316826001600160a01b0316145b806109d857506109d8868686610c06565b9695505050505050565b606060ff83146109fc576109f583610ce1565b905061097a565b818054610a0890611092565b80601f0160208091040260200160405190810160405280929190818152602001828054610a3490611092565b8015610a815780601f10610a5657610100808354040283529160200191610a81565b820191906000526020600020905b815481529060010190602001808311610a6457829003601f168201915b5050505050905092915050565b6000306001600160a01b037f000000000000000000000000000000000000000000000000000000000000000016148015610ae757507f000000000000000000000000000000000000000000000000000000000000000046145b15610b1157507f000000000000000000000000000000000000000000000000000000000000000090565b61091b604080517f8b73c3c69bb8fe3d512ecc4cf759cc79239f7b179b0ffacaa9a75d522b39400f60208201527f0000000000000000000000000000000000000000000000000000000000000000918101919091527f000000000000000000000000000000000000000000000000000000000000000060608201524660808201523060a082015260009060c00160405160208183030381529060405280519060200120905090565b60008060008351604103610bf35760208401516040850151606086015160001a610be588828585610d20565b955095509550505050610bff565b50508151600091506002905b9250925092565b6000806000856001600160a01b03168585604051602401610c289291906110cc565b60408051601f198184030181529181526020820180516001600160e01b0316630b135d3f60e11b17905251610c5d91906110ed565b600060405180830381855afa9150503d8060008114610c98576040519150601f19603f3d011682016040523d82523d6000602084013e610c9d565b606091505b5091509150818015610cb157506020815110155b80156109d857508051630b135d3f60e11b90610cd69083016020908101908401611109565b149695505050505050565b60606000610cee83610def565b604080516020808252818301909252919250600091906020820181803683375050509182525060208101929092525090565b600080807f7fffffffffffffffffffffffffffffff5d576e7357a4501ddfe92f46681b20a0841115610d5b5750600091506003905082610de5565b604080516000808252602082018084528a905260ff891692820192909252606081018790526080810186905260019060a0016020604051602081039080840390855afa158015610daf573d6000803e3d6000fd5b5050604051601f1901519150506001600160a01b038116610ddb57506000925060019150829050610de5565b9250600091508190505b9450945094915050565b600060ff8216601f81111561097a57604051632cd44ac360e21b815260040160405180910390fd5b60005b83811015610e32578181015183820152602001610e1a565b50506000910152565b60008151808452610e53816020860160208601610e17565b601f01601f19169290920160200192915050565b602081526000610e7a6020830184610e3b565b9392505050565b600060208284031215610e9357600080fd5b5035919050565b60ff60f81b8816815260e060208201526000610eb960e0830189610e3b565b8281036040840152610ecb8189610e3b565b606084018890526001600160a01b038716608085015260a0840186905283810360c08501528451808252602080870193509091019060005b81811015610f21578351835260209384019390920191600101610f03565b50909b9a5050505050505050505050565b80356001600160a01b0381168114610f4957600080fd5b919050565b634e487b7160e01b600052604160045260246000fd5b60008060008060008060c08789031215610f7d57600080fd5b863595506020870135945060408701359350610f9b60608801610f32565b9250610fa960808801610f32565b915060a087013567ffffffffffffffff811115610fc557600080fd5b8701601f81018913610fd657600080fd5b803567ffffffffffffffff811115610ff057610ff0610f4e565b604051601f8201601f19908116603f0116810167ffffffffffffffff8111828210171561101f5761101f610f4e565b6040528181528282016020018b101561103757600080fd5b816020840160208301376000602083830101528093505050509295509295509295565b60006020828403121561106c57600080fd5b81518015158114610e7a57600080fd5b634e487b7160e01b600052602160045260246000fd5b600181811c908216806110a657607f821691505b6020821081036110c657634e487b7160e01b600052602260045260246000fd5b50919050565b8281526040602082015260006110e56040830184610e3b565b949350505050565b600082516110ff818460208701610e17565b9190910192915050565b60006020828403121561111b57600080fd5b505191905056fea2646970667358221220dbe9ea35381e09d4dc2161ca5015c1fbaa6aa114322daeb7b9e079caadd5127964736f6c634300081e0033a264697066735822122062fff97323b3eb2a69a9b9ae25bb006dc4f83ccd506f0a8918b18ab994fee8cd64736f6c634300081e0033",
  "devdoc": {
    "kind": "dev",
    "methods": {
      "createSwap(bytes32,uint256,address,address,uint256)": {
        "params": {
          "amount": "Cantidad de tokens a intercambiar.",
          "hashlock": "El hash keccak256 del secreto compartido.",
          "receiver": "Direccin que recibir los tokens si presenta el secreto.",
          "timelockSeconds": "Duracin del timelock en segundos.",
          "tokenAddress": "Direccin del contrato del token ERC-20 a intercambiar."
        }
      }
    },
    "title": "SwapFactory para desplegar y gestionar instancias de FusionSwapIntentERC20",
    "version": 1
  },
  "userdoc": {
    "kind": "user",
    "methods": {
      "createSwap(bytes32,uint256,address,address,uint256)": {
        "notice": "Crea una nueva instancia del contrato FusionSwapIntentERC20.         El usuario (msg.sender) debe haber APROBADO previamente         que esta Factory pueda gastar sus 'amount' de 'tokenAddress'."
      }
    },
    "notice": "Permite la creacin estandarizada de nuevos swaps atmicos ERC-20         y centraliza el depsito inicial de tokens del usuario.",
    "version": 1
  },
  "storageLayout": {
    "storage": [
      {
        "astId": 3020,
        "contract": "contracts/SwapFactory.sol:SwapFactory",
        "label": "swaps",
        "offset": 0,
        "slot": "0",
        "type": "t_mapping(t_address,t_address)"
      },
      {
        "astId": 3022,
        "contract": "contracts/SwapFactory.sol:SwapFactory",
        "label": "swapCounter",
        "offset": 0,
        "slot": "1",
        "type": "t_uint256"
      },
      {
        "astId": 3025,
        "contract": "contracts/SwapFactory.sol:SwapFactory",
        "label": "name",
        "offset": 0,
        "slot": "2",
        "type": "t_string_storage"
      },
      {
        "astId": 3028,
        "contract": "contracts/SwapFactory.sol:SwapFactory",
        "label": "version",
        "offset": 0,
        "slot": "3",
        "type": "t_string_storage"
      }
    ],
    "types": {
      "t_address": {
        "encoding": "inplace",
        "label": "address",
        "numberOfBytes": "20"
      },
      "t_mapping(t_address,t_address)": {
        "encoding": "mapping",
        "key": "t_address",
        "label": "mapping(address => address)",
        "numberOfBytes": "32",
        "value": "t_address"
      },
      "t_string_storage": {
        "encoding": "bytes",
        "label": "string",
        "numberOfBytes": "32"
      },
      "t_uint256": {
        "encoding": "inplace",
        "label": "uint256",
        "numberOfBytes": "32"
      }
    }
  }
}