{
  "address": "0x60b61B71019E6F4C58f9fa13F92f19527Ae64E6c",
  "abi": [
    {
      "anonymous": false,
      "inputs": [
        {
          "indexed": false,
          "internalType": "address",
          "name": "swapAddress",
          "type": "address"
        },
        {
          "indexed": true,
          "internalType": "address",
          "name": "creator",
          "type": "address"
        },
        {
          "indexed": true,
          "internalType": "address",
          "name": "receiver",
          "type": "address"
        },
        {
          "indexed": true,
          "internalType": "address",
          "name": "token",
          "type": "address"
        },
        {
          "indexed": false,
          "internalType": "uint256",
          "name": "amount",
          "type": "uint256"
        },
        {
          "indexed": false,
          "internalType": "uint256",
          "name": "timelockEnd",
          "type": "uint256"
        }
      ],
      "name": "SwapCreated",
      "type": "event"
    },
    {
      "inputs": [
        {
          "internalType": "uint256",
          "name": "",
          "type": "uint256"
        }
      ],
      "name": "allSwaps",
      "outputs": [
        {
          "internalType": "address",
          "name": "",
          "type": "address"
        }
      ],
      "stateMutability": "view",
      "type": "function"
    },
    {
      "inputs": [
        {
          "internalType": "bytes32",
          "name": "hashlock",
          "type": "bytes32"
        },
        {
          "internalType": "uint256",
          "name": "timelockSeconds",
          "type": "uint256"
        },
        {
          "internalType": "address",
          "name": "receiver",
          "type": "address"
        },
        {
          "internalType": "address",
          "name": "executor",
          "type": "address"
        },
        {
          "internalType": "address",
          "name": "tokenAddress",
          "type": "address"
        },
        {
          "internalType": "uint256",
          "name": "amount",
          "type": "uint256"
        }
      ],
      "name": "createSwap",
      "outputs": [],
      "stateMutability": "nonpayable",
      "type": "function"
    },
    {
      "inputs": [],
      "name": "getAllSwaps",
      "outputs": [
        {
          "internalType": "address[]",
          "name": "",
          "type": "address[]"
        }
      ],
      "stateMutability": "view",
      "type": "function"
    },
    {
      "inputs": [
        {
          "internalType": "uint256",
          "name": "index",
          "type": "uint256"
        }
      ],
      "name": "getSwapAddress",
      "outputs": [
        {
          "internalType": "address",
          "name": "",
          "type": "address"
        }
      ],
      "stateMutability": "view",
      "type": "function"
    },
    {
      "inputs": [],
      "name": "getSwapCount",
      "outputs": [
        {
          "internalType": "uint256",
          "name": "",
          "type": "uint256"
        }
      ],
      "stateMutability": "view",
      "type": "function"
    }
  ],
  "transactionHash": "0xce143f12c5d3777f9ecbaa18105551da647430677687676cc3e4e6ce88d0f83d",
  "args": [],
  "numDeployments": 1,
  "solcInputHash": "7fbc8a735f41be26d211a0d8e3e2964c",
  "bytecode": "0x6080604052348015600f57600080fd5b5061142f8061001f6000396000f3fe608060405234801561001057600080fd5b50600436106100575760003560e01c80633b3c02501461005c5780639ac9b2341461008c578063ba94132a1461009f578063d6cfeae0146100b4578063d81671bc146100c9575b600080fd5b61006f61006a36600461068d565b6100da565b6040516001600160a01b0390911681526020015b60405180910390f35b61006f61009a36600461068d565b610150565b6100b26100ad3660046106c2565b61017a565b005b6100bc61061e565b6040516100839190610723565b600054604051908152602001610083565b6000805482106101225760405162461bcd60e51b815260206004820152600e60248201526d24b73b30b634b21034b73232bc1760911b60448201526064015b60405180910390fd5b600082815481106101355761013561076f565b6000918252602090912001546001600160a01b031692915050565b6000818154811061016057600080fd5b6000918252602090912001546001600160a01b0316905081565b600081116101d45760405162461bcd60e51b815260206004820152602160248201527f416d6f756e74206d7573742062652067726561746572207468616e207a65726f6044820152601760f91b6064820152608401610119565b6001600160a01b03841661022a5760405162461bcd60e51b815260206004820152601a60248201527f526563656976657220616464726573732072657175697265642e0000000000006044820152606401610119565b6001600160a01b0383166102805760405162461bcd60e51b815260206004820152601a60248201527f4578656375746f7220616464726573732072657175697265642e0000000000006044820152606401610119565b6001600160a01b0382166102d65760405162461bcd60e51b815260206004820152601760248201527f546f6b656e20616464726573732072657175697265642e0000000000000000006044820152606401610119565b600085116103265760405162461bcd60e51b815260206004820152601a60248201527f54696d656c6f636b206d75737420626520706f7369746976652e0000000000006044820152606401610119565b6040516323b872dd60e01b81523360048201523060248201526044810182905282906001600160a01b038216906323b872dd906064016020604051808303816000875af115801561037b573d6000803e3d6000fd5b505050506040513d601f19601f8201168201806040525081019061039f9190610785565b6104115760405162461bcd60e51b815260206004820152603c60248201527f546f6b656e207472616e736665722066726f6d207573657220746f206661637460448201527f6f7279206661696c65642e20436865636b20616c6c6f77616e63652e000000006064820152608401610119565b60003388888888888860405161042690610680565b6001600160a01b0397881681526020810196909652604086019490945291851660608501528416608084015290921660a082015260c081019190915260e001604051809103906000f080158015610481573d6000803e3d6000fd5b5060405163a9059cbb60e01b81526001600160a01b038083166004830152602482018690529192509083169063a9059cbb906044016020604051808303816000875af11580156104d5573d6000803e3d6000fd5b505050506040513d601f19601f820116820180604052508101906104f99190610785565b61056b5760405162461bcd60e51b815260206004820152603860248201527f546f6b656e207472616e736665722066726f6d20666163746f727920746f206e60448201527f6577207377617020636f6e7472616374206661696c65642e00000000000000006064820152608401610119565b600080546001810182559080527f290decd9548b62a8d60345a988386fc84ba6bc95484008f6362f93160ef3e5630180546001600160a01b0319166001600160a01b0383811691909117909155848116908716337f63ddfe275c04d4adf4185de83aad2f6b1eb299f299177fad015f6c039cb79b8d84876105ec8d426107ae565b604080516001600160a01b03909416845260208401929092529082015260600160405180910390a45050505050505050565b6060600080548060200260200160405190810160405280929190818152602001828054801561067657602002820191906000526020600020905b81546001600160a01b03168152600190910190602001808311610658575b5050505050905090565b610c24806107d683390190565b60006020828403121561069f57600080fd5b5035919050565b80356001600160a01b03811681146106bd57600080fd5b919050565b60008060008060008060c087890312156106db57600080fd5b86359550602087013594506106f2604088016106a6565b9350610700606088016106a6565b925061070e608088016106a6565b9598949750929591949360a090920135925050565b602080825282518282018190526000918401906040840190835b818110156107645783516001600160a01b031683526020938401939092019160010161073d565b509095945050505050565b634e487b7160e01b600052603260045260246000fd5b60006020828403121561079757600080fd5b815180151581146107a757600080fd5b9392505050565b808201808211156107cf57634e487b7160e01b600052601160045260246000fd5b9291505056fe608060405234801561001057600080fd5b50604051610c24380380610c2483398101604081905261002f9161033a565b6000811161008e5760405162461bcd60e51b815260206004820152602160248201527f416d6f756e74206d7573742062652067726561746572207468616e207a65726f6044820152601760f91b60648201526084015b60405180910390fd5b6001600160a01b0387166100e45760405162461bcd60e51b815260206004820152601e60248201527f53656e64657220616464726573732063616e6e6f74206265207a65726f2e00006044820152606401610085565b6001600160a01b03841661013a5760405162461bcd60e51b815260206004820181905260248201527f526563656976657220616464726573732063616e6e6f74206265207a65726f2e6044820152606401610085565b6001600160a01b0383166101905760405162461bcd60e51b815260206004820181905260248201527f4578656375746f7220616464726573732063616e6e6f74206265207a65726f2e6044820152606401610085565b6001600160a01b0382166101e65760405162461bcd60e51b815260206004820152601d60248201527f546f6b656e20616464726573732063616e6e6f74206265207a65726f2e0000006044820152606401610085565b600085116102365760405162461bcd60e51b815260206004820152601a60248201527f54696d656c6f636b206d75737420626520706f7369746976652e0000000000006044820152606401610085565b600080546001600160a01b03808a166001600160a01b031992831617909255600180548784169083161790556002805492861692909116919091179055600386905561028285426103b2565b60048190556005829055600680546001600160a01b0385811662010000810262010000600160b01b03199093169290921790925560015460005460035460025460408051928352602083019790975281870188905285166060820152945192949184169316917fd9df0870fe66a2158c8509e61f2bc059197611a9858033e216ae6e21f51398d29181900360800190a4505050505050506103d9565b80516001600160a01b038116811461033557600080fd5b919050565b600080600080600080600060e0888a03121561035557600080fd5b61035e8861031e565b602089015160408a01519198509650945061037b6060890161031e565b93506103896080890161031e565b925061039760a0890161031e565b9150600060c089015190508091505092959891949750929550565b808201808211156103d357634e487b7160e01b600052601160045260246000fd5b92915050565b61083c806103e86000396000f3fe608060405234801561001057600080fd5b50600436106100cf5760003560e01c8063c34c08e51161008c578063d33219b411610066578063d33219b414610198578063efb98bcf146101a1578063f7260d3e146101a9578063fc0c546a146101bc57600080fd5b8063c34c08e514610170578063c72b61be14610183578063c80ec5221461018b57600080fd5b806312f53950146100d4578063153127ce146100fb57806367e404ce1461011057806392654efa1461013b578063a782086e14610150578063aa8c217c14610167575b600080fd5b6006546100e690610100900460ff1681565b60405190151581526020015b60405180910390f35b6101036101d5565b6040516100f2919061074f565b600054610123906001600160a01b031681565b6040516001600160a01b0390911681526020016100f2565b61014e61014936600461079d565b61025c565b005b61015960035481565b6040519081526020016100f2565b61015960055481565b600254610123906001600160a01b031681565b61014e6104f4565b6006546100e69060ff1681565b61015960045481565b61015961072a565b600154610123906001600160a01b031681565b600654610123906201000090046001600160a01b031681565b60065460609060ff1615610207575060408051808201909152600981526810dbdb5c1b195d195960ba1b602082015290565b600654610100900460ff161561023a57506040805180820190915260088152671499599d5b99195960c21b602082015290565b5060408051808201909152600781526650656e64696e6760c81b602082015290565b60065460ff16156102a95760405162461bcd60e51b815260206004820152601260248201527120b63932b0b23c903bb4ba34323930bbb71760711b60448201526064015b60405180910390fd5b600654610100900460ff16156102f55760405162461bcd60e51b815260206004820152601160248201527020b63932b0b23c903932b33ab73232b21760791b60448201526064016102a0565b6001546001600160a01b031633148061031857506002546001600160a01b031633145b61036f5760405162461bcd60e51b815260206004820152602260248201527f556e617574686f72697a6564206578656375746f72206f722072656365697665604482015261391760f11b60648201526084016102a0565b60035460408051602081018490520160405160208183030381529060405280519060200120146103d35760405162461bcd60e51b815260206004820152600f60248201526e24b73b30b634b21039b2b1b932ba1760891b60448201526064016102a0565b6006805460ff19166001908117918290555460055460405163a9059cbb60e01b81526001600160a01b039283166004820152602481019190915262010000909204169063a9059cbb906044016020604051808303816000875af115801561043e573d6000803e3d6000fd5b505050506040513d601f19601f8201168201806040525081019061046291906107b6565b6104be5760405162461bcd60e51b815260206004820152602760248201527f546f6b656e207472616e73666572206661696c656420647572696e672065786560448201526631baba34b7b71760c91b60648201526084016102a0565b6040518181527f6921a2110a802468e8955f2885822155442ad19c60f42db0444a6993c23d20629060200160405180910390a150565b600454421161053d5760405162461bcd60e51b81526020600482015260156024820152742a34b6b2b637b1b5903737ba1032bc3834b932b21760591b60448201526064016102a0565b6000546001600160a01b031633146105975760405162461bcd60e51b815260206004820152601760248201527f4f6e6c792073656e6465722063616e20726566756e642e00000000000000000060448201526064016102a0565b60065460ff16156105df5760405162461bcd60e51b815260206004820152601260248201527120b63932b0b23c903bb4ba34323930bbb71760711b60448201526064016102a0565b600654610100900460ff161561062b5760405162461bcd60e51b815260206004820152601160248201527020b63932b0b23c903932b33ab73232b21760791b60448201526064016102a0565b6006805461ff001916610100179081905560005460055460405163a9059cbb60e01b81526001600160a01b039283166004820152602481019190915262010000909204169063a9059cbb906044016020604051808303816000875af1158015610698573d6000803e3d6000fd5b505050506040513d601f19601f820116820180604052508101906106bc91906107b6565b6106ff5760405162461bcd60e51b81526020600482015260146024820152732a37b5b2b7103932b33ab732103330b4b632b21760611b60448201526064016102a0565b6040517feca32268c495f4202277ddc0853891e19ad3250bd98fd2b2aaba02d05d13ede490600090a1565b6000600454421015610749574260045461074491906107df565b905090565b50600090565b602081526000825180602084015260005b8181101561077d5760208186018101516040868401015201610760565b506000604082850101526040601f19601f83011684010191505092915050565b6000602082840312156107af57600080fd5b5035919050565b6000602082840312156107c857600080fd5b815180151581146107d857600080fd5b9392505050565b8181038181111561080057634e487b7160e01b600052601160045260246000fd5b9291505056fea2646970667358221220581937863460b3c48a27233fccaf0713e4a6a4b9a8c3ba99c846133c3a5e2a4c64736f6c634300081e0033a2646970667358221220d752c7089b3beb84029e40dc2a92bfa34969b37a5029d0b070dcddd842c9aad264736f6c634300081e0033",
  "devdoc": {
    "kind": "dev",
    "methods": {
      "createSwap(bytes32,uint256,address,address,address,uint256)": {
        "params": {
          "amount": "Cantidad de tokens a intercambiar.",
          "executor": "Dirección autorizada para ejecutar el swap (ej: un solver de 1inch Fusion+).",
          "hashlock": "El hash keccak256 del secreto compartido.",
          "receiver": "Dirección que recibirá los tokens si presenta el secreto.",
          "timelockSeconds": "Duración del timelock en segundos.",
          "tokenAddress": "Dirección del contrato del token ERC-20 a intercambiar."
        }
      },
      "getSwapAddress(uint256)": {
        "params": {
          "index": "El índice del contrato de swap en la lista."
        }
      }
    },
    "title": "SwapFactory para desplegar y gestionar instancias de AtomicSwapIntentERC20",
    "version": 1
  },
  "userdoc": {
    "kind": "user",
    "methods": {
      "createSwap(bytes32,uint256,address,address,address,uint256)": {
        "notice": "Crea una nueva instancia del contrato AtomicSwapIntentERC20.         El usuario (msg.sender) debe haber APROBADO previamente         que esta Factory pueda gastar sus 'amount' de 'tokenAddress'."
      },
      "getAllSwaps()": {
        "notice": "Devuelve un array con todas las direcciones de los contratos de swap creados."
      },
      "getSwapAddress(uint256)": {
        "notice": "Devuelve la dirección de un contrato de swap dado su índice."
      },
      "getSwapCount()": {
        "notice": "Devuelve el número total de contratos de swap creados."
      }
    },
    "notice": "Permite la creación estandarizada de nuevos swaps atómicos ERC-20         y centraliza el depósito inicial de tokens del usuario.",
    "version": 1
  },
  "storageLayout": {
    "storage": [
      {
        "astId": 392,
        "contract": "contracts/SwapFactory.sol:SwapFactory",
        "label": "allSwaps",
        "offset": 0,
        "slot": "0",
        "type": "t_array(t_address)dyn_storage"
      }
    ],
    "types": {
      "t_address": {
        "encoding": "inplace",
        "label": "address",
        "numberOfBytes": "20"
      },
      "t_array(t_address)dyn_storage": {
        "base": "t_address",
        "encoding": "dynamic_array",
        "label": "address[]",
        "numberOfBytes": "32"
      }
    }
  }
}