{
  "address": "0x402738a6D6191240908995994d637992b9b400af",
  "abi": [
    {
      "anonymous": false,
      "inputs": [
        {
          "indexed": false,
          "internalType": "address",
          "name": "swapAddress",
          "type": "address"
        },
        {
          "indexed": true,
          "internalType": "address",
          "name": "creator",
          "type": "address"
        },
        {
          "indexed": true,
          "internalType": "address",
          "name": "receiver",
          "type": "address"
        },
        {
          "indexed": true,
          "internalType": "address",
          "name": "token",
          "type": "address"
        },
        {
          "indexed": false,
          "internalType": "uint256",
          "name": "amount",
          "type": "uint256"
        },
        {
          "indexed": false,
          "internalType": "uint256",
          "name": "timelockEnd",
          "type": "uint256"
        }
      ],
      "name": "SwapCreated",
      "type": "event"
    },
    {
      "inputs": [
        {
          "internalType": "bytes32",
          "name": "salt",
          "type": "bytes32"
        },
        {
          "internalType": "bytes32",
          "name": "hashlock",
          "type": "bytes32"
        },
        {
          "internalType": "uint256",
          "name": "timelockSeconds",
          "type": "uint256"
        },
        {
          "internalType": "address",
          "name": "receiver",
          "type": "address"
        },
        {
          "internalType": "address",
          "name": "tokenAddress",
          "type": "address"
        },
        {
          "internalType": "uint256",
          "name": "amount",
          "type": "uint256"
        }
      ],
      "name": "createSwap",
      "outputs": [],
      "stateMutability": "nonpayable",
      "type": "function"
    },
    {
      "inputs": [
        {
          "internalType": "bytes32",
          "name": "salt",
          "type": "bytes32"
        },
        {
          "internalType": "string",
          "name": "_name",
          "type": "string"
        },
        {
          "internalType": "string",
          "name": "_version",
          "type": "string"
        },
        {
          "internalType": "address",
          "name": "creator",
          "type": "address"
        },
        {
          "internalType": "bytes32",
          "name": "hashlock",
          "type": "bytes32"
        },
        {
          "internalType": "uint256",
          "name": "timelockSeconds",
          "type": "uint256"
        },
        {
          "internalType": "address",
          "name": "receiver",
          "type": "address"
        },
        {
          "internalType": "address",
          "name": "tokenAddress",
          "type": "address"
        },
        {
          "internalType": "uint256",
          "name": "amount",
          "type": "uint256"
        }
      ],
      "name": "predictSwapAddress",
      "outputs": [
        {
          "internalType": "address",
          "name": "",
          "type": "address"
        }
      ],
      "stateMutability": "view",
      "type": "function"
    },
    {
      "inputs": [],
      "name": "swapCounter",
      "outputs": [
        {
          "internalType": "uint256",
          "name": "",
          "type": "uint256"
        }
      ],
      "stateMutability": "view",
      "type": "function"
    },
    {
      "inputs": [
        {
          "internalType": "address",
          "name": "",
          "type": "address"
        }
      ],
      "name": "swaps",
      "outputs": [
        {
          "internalType": "address",
          "name": "",
          "type": "address"
        }
      ],
      "stateMutability": "view",
      "type": "function"
    }
  ],
  "transactionHash": "0x997e28f91cefa573e3b3c0207ed3465522f169c40e3eda637ef612bcaa499b4f",
  "args": [],
  "numDeployments": 1,
  "solcInputHash": "4dc0b095fc5ae343463563bb288c85ee",
  "bytecode": "0x60c0604052601560809081527f467573696f6e53776170496e74656e744552433230000000000000000000000060a05260029061003c9082610114565b506040805180820190915260018152603160f81b60208201526003906100629082610114565b5034801561006f57600080fd5b506101d2565b634e487b7160e01b600052604160045260246000fd5b600181811c9082168061009f57607f821691505b6020821081036100bf57634e487b7160e01b600052602260045260246000fd5b50919050565b601f82111561010f57806000526020600020601f840160051c810160208510156100ec5750805b601f840160051c820191505b8181101561010c57600081556001016100f8565b50505b505050565b81516001600160401b0381111561012d5761012d610075565b6101418161013b845461008b565b846100c5565b6020601f821160018114610175576000831561015d5750848201515b600019600385901b1c1916600184901b17845561010c565b600084815260208120601f198516915b828110156101a55787850151825560209485019460019092019101610185565b50848210156101c35786840151600019600387901b60f8161c191681555b50505050600190811b01905550565b612316806101e16000396000f3fe608060405234801561001057600080fd5b506004361061004c5760003560e01c80631688cf541461005157806333bce8c314610097578063555058b4146100ae578063cc767bd7146100c3575b600080fd5b61007a61005f36600461062c565b6000602081905290815260409020546001600160a01b031681565b6040516001600160a01b0390911681526020015b60405180910390f35b6100a060015481565b60405190815260200161008e565b6100c16100bc36600461064e565b6100d6565b005b61007a6100d136600461074d565b610545565b600081116101355760405162461bcd60e51b815260206004820152602160248201527f416d6f756e74206d7573742062652067726561746572207468616e207a65726f6044820152601760f91b60648201526084015b60405180910390fd5b6001600160a01b03831661018b5760405162461bcd60e51b815260206004820152601a60248201527f526563656976657220616464726573732072657175697265642e000000000000604482015260640161012c565b6001600160a01b0382166101e15760405162461bcd60e51b815260206004820152601760248201527f546f6b656e20616464726573732072657175697265642e000000000000000000604482015260640161012c565b600084116102315760405162461bcd60e51b815260206004820152601a60248201527f54696d656c6f636b206d75737420626520706f7369746976652e000000000000604482015260640161012c565b6040516323b872dd60e01b815233600482018190523060248301526044820183905283916001600160a01b038316906323b872dd906064016020604051808303816000875af1158015610288573d6000803e3d6000fd5b505050506040513d601f19601f820116820180604052508101906102ac9190610812565b61031e5760405162461bcd60e51b815260206004820152603c60248201527f546f6b656e207472616e736665722066726f6d207573657220746f206661637460448201527f6f7279206661696c65642e20436865636b20616c6c6f77616e63652e00000000606482015260840161012c565b60006040518060200161033090610603565b601f1982820381018352601f9091011660408190526103639060029060039086908d908d908d908d908d906020016108d7565b60408051601f19818403018152908290526103819291602001610961565b60405160208183030381529060405290506000898251602084016000f59050806103aa57600080fd5b60405163a9059cbb60e01b81526001600160a01b0380831660048301526024820187905282919086169063a9059cbb906044016020604051808303816000875af11580156103fc573d6000803e3d6000fd5b505050506040513d601f19601f820116820180604052508101906104209190610812565b6104925760405162461bcd60e51b815260206004820152603860248201527f546f6b656e207472616e736665722066726f6d20666163746f727920746f206e60448201527f6577207377617020636f6e7472616374206661696c65642e0000000000000000606482015260840161012c565b6001600160a01b03848116600090815260208190526040812080546001600160a01b0319169284169290921790915560018054916104cf836109a6565b90915550506001600160a01b03808816908916337f63ddfe275c04d4adf4185de83aad2f6b1eb299f299177fad015f6c039cb79b8d848a6105108f426109bf565b604080516001600160a01b03909416845260208401929092529082015260600160405180910390a45050505050505050505050565b6000806040518060200161055890610603565b601f1982820381018352601f909101166040819052610589908c908c908c908c908c908c908c908c90602001610a04565b60408051601f19818403018152908290526105a79291602001610961565b60405160208183030381529060405290506105ca8b8280519060200120306105d9565b9b9a5050505050505050505050565b6000604051836040820152846020820152828152600b8101905060ff815360559020949350505050565b6118b580610a2c83390190565b80356001600160a01b038116811461062757600080fd5b919050565b60006020828403121561063e57600080fd5b61064782610610565b9392505050565b60008060008060008060c0878903121561066757600080fd5b86359550602087013594506040870135935061068560608801610610565b925061069360808801610610565b9598949750929591949360a090920135925050565b634e487b7160e01b600052604160045260246000fd5b600082601f8301126106cf57600080fd5b813567ffffffffffffffff8111156106e9576106e96106a8565b604051601f8201601f19908116603f0116810167ffffffffffffffff81118282101715610718576107186106a8565b60405281815283820160200185101561073057600080fd5b816020850160208301376000918101602001919091529392505050565b60008060008060008060008060006101208a8c03121561076c57600080fd5b8935985060208a013567ffffffffffffffff81111561078a57600080fd5b6107968c828d016106be565b98505060408a013567ffffffffffffffff8111156107b357600080fd5b6107bf8c828d016106be565b9750506107ce60608b01610610565b955060808a0135945060a08a013593506107ea60c08b01610610565b92506107f860e08b01610610565b989b979a5095989497939692955090936101000135919050565b60006020828403121561082457600080fd5b8151801515811461064757600080fd5b8054600090600181811c9082168061084d57607f821691505b60208210810361086d57634e487b7160e01b600052602260045260246000fd5b81865260208601818015610888576001811461089e576108cc565b60ff198516825283151560051b820195506108cc565b60008781526020902060005b858110156108c6578154848201526001909101906020016108aa565b83019650505b505050505092915050565b610100815260006108ec61010083018b610834565b82810360208401526108fe818b610834565b6001600160a01b03998a16604085015260608401989098525050608081019490945291851660a084015290931660c082015260e0019190915292915050565b60005b83811015610958578181015183820152602001610940565b50506000910152565b6000835161097381846020880161093d565b83519083019061098781836020880161093d565b01949350505050565b634e487b7160e01b600052601160045260246000fd5b6000600182016109b8576109b8610990565b5060010190565b808201808211156109d2576109d2610990565b92915050565b600081518084526109f081602086016020860161093d565b601f01601f19169290920160200192915050565b61010081526000610a1961010083018b6109d8565b82810360208401526108fe818b6109d856fe61016060405234801561001157600080fd5b506040516118b53803806118b583398101604081905261003091610465565b878761003d826000610315565b6101205261004c816001610315565b61014052815160208084019190912060e052815190820120610100524660a0526100d960e05161010051604080517f8b73c3c69bb8fe3d512ecc4cf759cc79239f7b179b0ffacaa9a75d522b39400f60208201529081019290925260608201524660808201523060a082015260009060c00160405160208183030381529060405280519060200120905090565b60805250503060c0526001600160a01b03861661012e5760405162461bcd60e51b815260206004820152600e60248201526d24b73b30b634b21039b2b73232b960911b60448201526064015b60405180910390fd5b6001600160a01b0383166101775760405162461bcd60e51b815260206004820152601060248201526f24b73b30b634b2103932b1b2b4bb32b960811b6044820152606401610125565b6001600160a01b0382166101bd5760405162461bcd60e51b815260206004820152600d60248201526c24b73b30b634b2103a37b5b2b760991b6044820152606401610125565b600081116102025760405162461bcd60e51b81526020600482015260126024820152710416d6f756e74206d757374206265203e20360741b6044820152606401610125565b600084116102525760405162461bcd60e51b815260206004820152601960248201527f54696d656c6f636b206d75737420626520706f736974697665000000000000006044820152606401610125565b600280546001600160a01b038089166001600160a01b0319928316179092556003805492861692909116919091179055600485905560058490556102968442610520565b6006819055600880546001600160a01b0319166001600160a01b038581169182179092556007849055604080518981526020810194909452830184905291858216918916907f2fdb6f62c0073da0eca287e922e0d8a00b5fc3ccf52e955d67cdc42bb83e23299060600160405180910390a450505050505050506106df565b60006020835110156103315761032a83610348565b9050610342565b8161033c84826105ca565b5060ff90505b92915050565b600080829050601f81511115610373578260405163305a27a960e01b81526004016101259190610688565b805161037e826106bb565b179392505050565b634e487b7160e01b600052604160045260246000fd5b60005b838110156103b757818101518382015260200161039f565b50506000910152565b600082601f8301126103d157600080fd5b81516001600160401b038111156103ea576103ea610386565b604051601f8201601f19908116603f011681016001600160401b038111828210171561041857610418610386565b60405281815283820160200185101561043057600080fd5b61044182602083016020870161039c565b949350505050565b80516001600160a01b038116811461046057600080fd5b919050565b600080600080600080600080610100898b03121561048257600080fd5b88516001600160401b0381111561049857600080fd5b6104a48b828c016103c0565b60208b015190995090506001600160401b038111156104c257600080fd5b6104ce8b828c016103c0565b9750506104dd60408a01610449565b60608a015160808b0151919750955093506104fa60a08a01610449565b925061050860c08a01610449565b60e09990990151979a96995094979396929591945050565b8082018082111561034257634e487b7160e01b600052601160045260246000fd5b600181811c9082168061055557607f821691505b60208210810361057557634e487b7160e01b600052602260045260246000fd5b50919050565b601f8211156105c557806000526020600020601f840160051c810160208510156105a25750805b601f840160051c820191505b818110156105c257600081556001016105ae565b50505b505050565b81516001600160401b038111156105e3576105e3610386565b6105f7816105f18454610541565b8461057b565b6020601f82116001811461062b57600083156106135750848201515b600019600385901b1c1916600184901b1784556105c2565b600084815260208120601f198516915b8281101561065b578785015182556020948501946001909201910161063b565b50848210156106795786840151600019600387901b60f8161c191681555b50505050600190811b01905550565b60208152600082518060208401526106a781604085016020870161039c565b601f01601f19169190910160400192915050565b805160208083015191908110156105755760001960209190910360031b1b16919050565b60805160a05160c05160e05161010051610120516101405161117c610739600039600061094b0152600061091901526000610b8c01526000610b6401526000610abf01526000610ae901526000610b13015261117c6000f3fe608060405234801561001057600080fd5b50600436106100ea5760003560e01c8063a782086e1161008c578063c72b61be11610066578063c72b61be146101cd578063c80ec522146101d5578063f7260d3e146101e9578063fc0c546a146101fc57600080fd5b8063a782086e146101a8578063aa8c217c146101b1578063c6e58b69146101ba57600080fd5b806360307545116100c8578063603075451461014457806365a1f3c31461015957806367e404ce1461016257806384b0196e1461018d57600080fd5b806306e9ae28146100ef57806312f539501461010b578063153127ce1461012f575b600080fd5b6100f860065481565b6040519081526020015b60405180910390f35b60085461011f90600160a81b900460ff1681565b6040519015158152602001610102565b61013761020f565b6040516101029190610e8b565b610157610152366004610ea5565b61029f565b005b6100f860055481565b600254610175906001600160a01b031681565b6040516001600160a01b039091168152602001610102565b61019561033d565b6040516101029796959493929190610ebe565b6100f860045481565b6100f860075481565b6101576101c8366004610f88565b610383565b6101576106e7565b60085461011f90600160a01b900460ff1681565b600354610175906001600160a01b031681565b600854610175906001600160a01b031681565b600854606090600160a01b900460ff1615610248575060408051808201909152600981526810dbdb5c1b195d195960ba1b602082015290565b600854600160a81b900460ff161561027d57506040805180820190915260088152671499599d5b99195960c21b602082015290565b5060408051808201909152600781526650656e64696e6760c81b602082015290565b60045460408051602081018490520160405160208183030381529060405280519060200120146103075760405162461bcd60e51b815260206004820152600e60248201526d125b9d985b1a59081cd958dc995d60921b60448201526064015b60405180910390fd5b6040518181527f9b7ddc883342824bd7ddbff103e7a69f8f2e60b96c075cd1b8b8b9713ecc75a49060200160405180910390a150565b600060608060008060006060610351610912565b610359610944565b60408051600080825260208201909252600f60f81b9b939a50919850469750309650945092509050565b600254600354600754600454600554604080517fe7b071650bf304f595cdd624ff192f83aea5b4b5ae0d872515eef38d9ce4dc1760208201526001600160a01b03968716918101919091529385166060850152608084018a905260a0840189905287851660c085015293861660e0840152610100830191909152610120820152610140810191909152600090610432906101600160405160208183030381529060405280519060200120610971565b60025490915061044c906001600160a01b031682846109a4565b61048c5760405162461bcd60e51b8152602060048201526011602482015270496e76616c6964207369676e617475726560781b60448201526064016102fe565b600854600160a01b900460ff16156104d95760405162461bcd60e51b815260206004820152601060248201526f105b1c9958591e48195e1958dd5d195960821b60448201526064016102fe565b600854600160a81b900460ff16156105265760405162461bcd60e51b815260206004820152601060248201526f105b1c9958591e481c99599d5b99195960821b60448201526064016102fe565b60045460408051602081018a90520160405160208183030381529060405280519060200120146105895760405162461bcd60e51b815260206004820152600e60248201526d125b9d985b1a59081cd958dc995d60921b60448201526064016102fe565b6006544211156105d25760405162461bcd60e51b8152602060048201526014602482015273151a5b595b1bd8dac81a185cc8195e1c1a5c995960621b60448201526064016102fe565b60088054600160a01b60ff60a01b1982161790915560035460075460405163a9059cbb60e01b81526001600160a01b039283166004820152602481019190915291169063a9059cbb906044016020604051808303816000875af115801561063d573d6000803e3d6000fd5b505050506040513d601f19601f82011682018060405250810190610661919061107e565b6106a55760405162461bcd60e51b8152602060048201526015602482015274151bdad95b881d1c985b9cd9995c8819985a5b1959605a1b60448201526064016102fe565b60408051338152602081018990527f0a4faf42a072190da8e63181188040fe68178ee1900cc648968012688226447f910160405180910390a150505050505050565b600654421161072f5760405162461bcd60e51b8152602060048201526014602482015273151a5b595b1bd8dac81b9bdd08195e1c1a5c995960621b60448201526064016102fe565b6002546001600160a01b031633146107825760405162461bcd60e51b815260206004820152601660248201527513db9b1e481cd95b99195c8818d85b881c99599d5b9960521b60448201526064016102fe565b600854600160a01b900460ff16156107cf5760405162461bcd60e51b815260206004820152601060248201526f105b1c9958591e48195e1958dd5d195960821b60448201526064016102fe565b600854600160a81b900460ff161561081c5760405162461bcd60e51b815260206004820152601060248201526f105b1c9958591e481c99599d5b99195960821b60448201526064016102fe565b60088054600160a81b60ff60a81b1982161790915560025460075460405163a9059cbb60e01b81526001600160a01b039283166004820152602481019190915291169063a9059cbb906044016020604051808303816000875af1158015610887573d6000803e3d6000fd5b505050506040513d601f19601f820116820180604052508101906108ab919061107e565b6108e75760405162461bcd60e51b815260206004820152600d60248201526c1499599d5b990819985a5b1959609a1b60448201526064016102fe565b6040517feca32268c495f4202277ddc0853891e19ad3250bd98fd2b2aaba02d05d13ede490600090a1565b606061093f7f00000000000000000000000000000000000000000000000000000000000000006000610a06565b905090565b606061093f7f00000000000000000000000000000000000000000000000000000000000000006001610a06565b600061099e61097e610ab2565b8360405161190160f01b8152600281019290925260228201526042902090565b92915050565b60008060006109b38585610bdd565b50909250905060008160038111156109cd576109cd6110a0565b1480156109eb5750856001600160a01b0316826001600160a01b0316145b806109fc57506109fc868686610c2a565b9695505050505050565b606060ff8314610a2057610a1983610d05565b905061099e565b818054610a2c906110b6565b80601f0160208091040260200160405190810160405280929190818152602001828054610a58906110b6565b8015610aa55780601f10610a7a57610100808354040283529160200191610aa5565b820191906000526020600020905b815481529060010190602001808311610a8857829003601f168201915b5050505050905092915050565b6000306001600160a01b037f000000000000000000000000000000000000000000000000000000000000000016148015610b0b57507f000000000000000000000000000000000000000000000000000000000000000046145b15610b3557507f000000000000000000000000000000000000000000000000000000000000000090565b61093f604080517f8b73c3c69bb8fe3d512ecc4cf759cc79239f7b179b0ffacaa9a75d522b39400f60208201527f0000000000000000000000000000000000000000000000000000000000000000918101919091527f000000000000000000000000000000000000000000000000000000000000000060608201524660808201523060a082015260009060c00160405160208183030381529060405280519060200120905090565b60008060008351604103610c175760208401516040850151606086015160001a610c0988828585610d44565b955095509550505050610c23565b50508151600091506002905b9250925092565b6000806000856001600160a01b03168585604051602401610c4c9291906110f0565b60408051601f198184030181529181526020820180516001600160e01b0316630b135d3f60e11b17905251610c819190611111565b600060405180830381855afa9150503d8060008114610cbc576040519150601f19603f3d011682016040523d82523d6000602084013e610cc1565b606091505b5091509150818015610cd557506020815110155b80156109fc57508051630b135d3f60e11b90610cfa908301602090810190840161112d565b149695505050505050565b60606000610d1283610e13565b604080516020808252818301909252919250600091906020820181803683375050509182525060208101929092525090565b600080807f7fffffffffffffffffffffffffffffff5d576e7357a4501ddfe92f46681b20a0841115610d7f5750600091506003905082610e09565b604080516000808252602082018084528a905260ff891692820192909252606081018790526080810186905260019060a0016020604051602081039080840390855afa158015610dd3573d6000803e3d6000fd5b5050604051601f1901519150506001600160a01b038116610dff57506000925060019150829050610e09565b9250600091508190505b9450945094915050565b600060ff8216601f81111561099e57604051632cd44ac360e21b815260040160405180910390fd5b60005b83811015610e56578181015183820152602001610e3e565b50506000910152565b60008151808452610e77816020860160208601610e3b565b601f01601f19169290920160200192915050565b602081526000610e9e6020830184610e5f565b9392505050565b600060208284031215610eb757600080fd5b5035919050565b60ff60f81b8816815260e060208201526000610edd60e0830189610e5f565b8281036040840152610eef8189610e5f565b606084018890526001600160a01b038716608085015260a0840186905283810360c08501528451808252602080870193509091019060005b81811015610f45578351835260209384019390920191600101610f27565b50909b9a5050505050505050505050565b80356001600160a01b0381168114610f6d57600080fd5b919050565b634e487b7160e01b600052604160045260246000fd5b60008060008060008060c08789031215610fa157600080fd5b863595506020870135945060408701359350610fbf60608801610f56565b9250610fcd60808801610f56565b915060a087013567ffffffffffffffff811115610fe957600080fd5b8701601f81018913610ffa57600080fd5b803567ffffffffffffffff81111561101457611014610f72565b604051601f8201601f19908116603f0116810167ffffffffffffffff8111828210171561104357611043610f72565b6040528181528282016020018b101561105b57600080fd5b816020840160208301376000602083830101528093505050509295509295509295565b60006020828403121561109057600080fd5b81518015158114610e9e57600080fd5b634e487b7160e01b600052602160045260246000fd5b600181811c908216806110ca57607f821691505b6020821081036110ea57634e487b7160e01b600052602260045260246000fd5b50919050565b8281526040602082015260006111096040830184610e5f565b949350505050565b60008251611123818460208701610e3b565b9190910192915050565b60006020828403121561113f57600080fd5b505191905056fea2646970667358221220d3a876dbbb8051c74cdc6f32089294fa77569bd5ad03deca4fdc252d401335ee64736f6c634300081e0033a2646970667358221220aede8e3da609b39cd69be1d2f752e5a8adb78b271bd99d60ea8decb90707f9d464736f6c634300081e0033",
  "devdoc": {
    "kind": "dev",
    "methods": {},
    "title": "SwapFactory to deploy and manage instances of FusionSwapIntentERC20",
    "version": 1
  },
  "userdoc": {
    "kind": "user",
    "methods": {},
    "notice": "Enables the standardized creation of new ERC-20 atomic swaps",
    "version": 1
  },
  "storageLayout": {
    "storage": [
      {
        "astId": 3075,
        "contract": "contracts/SwapFactory.sol:SwapFactory",
        "label": "swaps",
        "offset": 0,
        "slot": "0",
        "type": "t_mapping(t_address,t_address)"
      },
      {
        "astId": 3077,
        "contract": "contracts/SwapFactory.sol:SwapFactory",
        "label": "swapCounter",
        "offset": 0,
        "slot": "1",
        "type": "t_uint256"
      },
      {
        "astId": 3080,
        "contract": "contracts/SwapFactory.sol:SwapFactory",
        "label": "name",
        "offset": 0,
        "slot": "2",
        "type": "t_string_storage"
      },
      {
        "astId": 3083,
        "contract": "contracts/SwapFactory.sol:SwapFactory",
        "label": "version",
        "offset": 0,
        "slot": "3",
        "type": "t_string_storage"
      }
    ],
    "types": {
      "t_address": {
        "encoding": "inplace",
        "label": "address",
        "numberOfBytes": "20"
      },
      "t_mapping(t_address,t_address)": {
        "encoding": "mapping",
        "key": "t_address",
        "label": "mapping(address => address)",
        "numberOfBytes": "32",
        "value": "t_address"
      },
      "t_string_storage": {
        "encoding": "bytes",
        "label": "string",
        "numberOfBytes": "32"
      },
      "t_uint256": {
        "encoding": "inplace",
        "label": "uint256",
        "numberOfBytes": "32"
      }
    }
  }
}